:020000040800F2
:100000001010002005010008490300084103000802
:1000100045030008E7010008A904000800000000EB
:100020000000000000000000000000008D04000837
:10003000EB010008000000004B03000891040008D9
:100040001B0100081B0100081B0100081B01000820
:100050001B0100081B0100081B0100081B01000810
:100060001B0100081B0100081B0100081B01000800
:100070001B0100081B0100081B0100081B010008F0
:100080001B0100081B0100081B0100081B010008E0
:100090001B0100081B0100081B0100081B010008D0
:1000A0001B0100081B0100081B0100081B010008C0
:1000B0001B0100081B0100081B0100081B010008B0
:1000C0001B0100081B0100081B0100081B010008A0
:1000D0001B0100081B0100081B0100081B01000890
:1000E0001B0100081B0100081B010008DFF810D0ED
:1000F00000F016F800480047CD040008AFF3008078
:100100001010002005480047FEE7FEE7FEE7FEE787
:10011000FEE7FEE7FEE7FEE7FEE7FEE7ED0000088C
:10012000064C074D06E0E06840F0010394E8070044
:1001300098471034AC42F6D3FFF7DCFF10050008F7
:100140003005000808B50121102000F0FFF800205C
:1001500000904FF40050ADF8000014208DF803001B
:1001600002208DF802006946044800F059F8012287
:100170005103024800F0DFF808BD00000010014004
:1001800010B5012000F032F8022000F03DF84FF4E5
:10019000803000F01DF900BF312000F0E7F80028A2
:1001A000FAD04FF4E0114FF4803000F055F90120FF
:1001B00000F04CF900BF392000F0D8F80028FAD040
:1001C000002000F0F9F84FF4806000F027F90020DB
:1001D00000F030F9022000F04DF900BF00F0E4F823
:1001E0000828FBD110BD00BFFEE77047054909682C
:1001F00021F01001034A11601146096801431160A2
:10020000704700000020024001460020034A1068A9
:1002100000F03800084310607047000000200240E2
:100220002DE9F0410246002500260020002300248D
:10023000002791F803C00CF00F0591F803C00CF0F3
:10024000100CBCF1000F03D091F802C04CEA050578
:1002500091F800C0BCF1000F31D0146800202BE0F1
:100260004FF0010C0CFA00F3B1F800C00CEA0306E1
:100270009E4220D183004FF00F0C0CFA03F7BC43D1
:1002800005FA03FC4CEA040491F803C0BCF1280F02
:1002900006D14FF0010C0CFA00FCC2F814C00AE0C1
:1002A00091F803C0BCF1480F05D14FF0010C0CFAD6
:1002B00000FCC2F810C0401C0828D1D31460B1F86B
:1002C00000C0BCF1FF0F34DD546800202EE000F1C7
:1002D000080C4FF0010808FA0CF3B1F800C00CEA62
:1002E00003069E4221D183004FF00F0C0CFA03F756
:1002F000BC4305FA03FC4CEA040491F803C0BCF1CA
:10030000280F05D100F1080C08FA0CF8C2F8148087
:1003100091F803C0BCF1480F07D100F1080C4FF071
:10032000010808FA0CF8C2F81080401C0828CED347
:100330005460BDE8F0810AB1016100E0416170479D
:1003400000BFFEE700BFFEE77047704729B1064ACD
:1003500092690243044B9A6104E0034A9269824322
:10036000014B9A61704700000010024010B5014631
:100370000022002300204A11012A02D1094C2368DF
:1003800006E0022A02D1074C236A01E0054C636AA9
:1003900001F01F02012494401C400CB1012000E038
:1003A000002010BD001002400248406800F00C0020
:1003B000704700000010024001460020034A5068C8
:1003C00020F0F00008435060704700000010024029
:1003D0001149096821F480310F4A116011460968FA
:1003E00021F480211160B0F5803F03D0B0F5802F5B
:1003F0000ED106E00849096841F48031064A1160CF
:1004000007E00549096841F4A021034A116000E0B2
:1004100000BF00BF704700000010024001460020EE
:10042000034A506820F4E0600843506070470000C1
:100430000010024001460020034A506820F460503A
:1004400040EAC10050607047001002400149086650
:10045000704700000000424202460020044B5868EA
:1004600020F47C1042EA01031843014B58607047A6
:100470000010024001460020034A506820F00300AB
:1004800008435060704700000010024070470000B1
:100490000448036840685A1C40F1000001490A60A2
:1004A000486070470000002000BFFEE702E008C877
:1004B000121F08C1002AFAD170477047002001E0DE
:1004C00001C1121F002AFBD170470000FFF758FE40
:1004D000FFF738FE16E000224FF400510A48FFF7FC
:1004E0002AFF002000E0401C08498842FBD301227B
:1004F00051030548FFF71FFF002000E0401C03499F
:100500008842FBD3E7E7000000100140801A060094
:1005100030050008000000200C000000AC040008BA
:100520003C0500080C00002004100000BC0400087A
:0C053000000000000000000000000000BF
:04000005080000ED02
:00000001FF
