:020000040800F2
:1000000010100020050100083F0300083703000816
:100010003B030008110200089906000800000000D8
:1000200000000000000000000000000009040008BB
:100030001502000800000000C5030008F5040008D0
:100040001F0100081F0100081F0100081F01000810
:100050001F0100081F0100081F0100081F01000800
:100060001F0100081F0100081F0100081F010008F0
:100070001F0100081F0100081F0100081F010008E0
:100080001F0100081F0100081F0100081F010008D0
:100090001F0100081F0100081F0100081F010008C0
:1000A0001F0100081F0100081F0100081F010008B0
:1000B0001F0100086D0500081F0100081F0100084E
:1000C0001F0100081F0100081F0100081F01000890
:1000D0001F0100081F0100081F0100081F01000880
:1000E0001F0100081F0100081F010008DFF810D0E1
:1000F00000F01AF800480047BD060008AFF3008082
:10010000101000200648804706480047FEE7FEE73B
:10011000FEE7FEE7FEE7FEE7FEE7FEE7FEE7FEE7B7
:100120000D050008ED000008064C074D06E0E068EC
:1001300040F0010394E8070098471034AC42F6D32E
:10014000FFF7D8FF4407000864070008044A126854
:10015000111800BF024A12688A42FBD370470000A0
:100160000000002008B50121102000F03DF94FF4F7
:100170000050ADF8000014208DF8030002208DF827
:1001800002006946044800F046F801225103024883
:1001900000F0CCF808BD00000010014008B50122B5
:1001A0001146094800F01CFA1D208DF800000020BF
:1001B0008DF801008DF8020001208DF803006846DB
:1001C00000F0BEF808BD0000000400400EB501219B
:1001D000022000F0F9F84720ADF8000040F2E730C7
:1001E000ADF8040000208DF80800ADF80200694663
:1001F000064800F0FFF90121044800F0CDF9012183
:10020000024800F0D8F9FFF7C9FF0EBD0004004016
:1002100000BFFEE770472DE9F041024600250026A9
:10022000002000230024002791F803C00CF00F05E4
:1002300091F803C00CF0100CBCF1000F03D091F842
:1002400002C04CEA050591F800C0BCF1000F31D0A6
:10025000146800202BE04FF0010C0CFA00F3B1F809
:1002600000C00CEA03069E4220D183004FF00F0C21
:100270000CFA03F7BC4305FA03FC4CEA040491F8BA
:1002800003C0BCF1280F06D14FF0010C0CFA00FCA2
:10029000C2F814C00AE091F803C0BCF1480F05D1C0
:1002A0004FF0010C0CFA00FCC2F810C0401C0828EA
:1002B000D1D31460B1F800C0BCF1FF0F34DD546835
:1002C00000202EE000F1080C4FF0010808FA0CF3B2
:1002D000B1F800C00CEA03069E4221D183004FF022
:1002E0000F0C0CFA03F7BC4305FA03FC4CEA0404B8
:1002F00091F803C0BCF1280F05D100F1080C08FAF1
:100300000CF8C2F8148091F803C0BCF1480F07D173
:1003100000F1080C4FF0010808FA0CF8C2F8108040
:10032000401C0828CED35460BDE8F0810AB10161B9
:1003300000E04161704700BFFEE700BFFEE7704785
:1003400070B5002100230F22C47804B3154C246833
:1003500004F4E064C4F5E064210AC1F10403CA4076
:10036000447804FA03F184781440214309010E4CC7
:100370000678A155047804F01F050124AC400578E7
:100380006D11AD0005F1E025C5F8004109E00478E4
:1003900004F01F050124AC40044D0678761145F8A1
:1003A000264070BD0CED00E000E400E080E100E0DC
:1003B00002490143024A1160704700000000FA053B
:1003C0000CED00E07047000029B1064AD2690243F3
:1003D000044BDA6104E0034AD2698243014BDA61DB
:1003E000704700000010024029B1064A926902439A
:1003F000044B9A6104E0034A92698243014B9A617B
:100400007047000000100240704710B500F002F87D
:1004100010BD00000CB5002001900090334800682A
:1004200040F480303149086000BF3048006800F473
:10043000003000900198401C0190009818B9019874
:10044000B0F5A06FF1D12948006800F4003010B178
:100450000120009001E0002000900098012843D185
:100460002348006840F010002149086008460068F1
:1004700020F0070008600846006840F002000860AD
:100480001A4840681949486008464068486008466C
:10049000406840F4806048600846406820F47C1062
:1004A00048600846406840F4E81048600846006824
:1004B00040F08070086000BF0C48006800F00070D9
:1004C0000028F9D00948406820F003000749486037
:1004D0000846406840F00200486000BF034840689A
:1004E00000F00C000828F9D10CBD000000100240FB
:1004F000002002400448036840685A1C40F1000094
:1005000001490A60486070470400002010B5134894
:10051000006840F001001149086008464068104931
:1005200008400E494860084600680E4908400B49DB
:1005300008600846006820F480200860084640688B
:1005400020F4FE0048604FF41F008860FFF75DFF55
:100550004FF000600449086010BD00000010024028
:100560000000FFF8FFFFF6FE08ED00E010B50121E6
:10057000074800F02CF8012808D10121044800F0B8
:1005800017F804480068401C0249086010BD0000CC
:10059000000400400000002021B1028842F08002E7
:1005A000028004E002884FF67F731A400280704791
:1005B000CA430282704721B1028842F001020280E0
:1005C00004E002884FF6FE731A400280704702462C
:1005D0000020138A0B400BB1012000E0002070477F
:1005E0001AB183890B43838102E083898B43838122
:1005F00070470000002202881D4B98420ED01D4B10
:1006000098420BD0B0F1804F08D01B4B984205D0D8
:100610001A4B984202D01A4B984204D14FF68F736E
:100620001A404B881A43174B984207D0164B9842F2
:1006300004D04FF6FF431A40CB881A4302808B88C0
:1006400083850B8803850A4B98420BD0094B98424F
:1006500008D00E4B984205D00D4B984202D00D4B5E
:10066000984201D10B7A03860123838270470000F0
:10067000002C01400034014000040040000800400C
:10068000000C0040001000400014004000400140F9
:10069000004401400048014000BFFEE702E008C8F6
:1006A000121F08C1002AFAD170477047002001E0EC
:1006B00001C1121F002AFBD1704700004FF4A06057
:1006C000FFF776FEFFF782FDFFF74CFD36E00022D4
:1006D0004FF400511A48FFF729FE3220FFF736FD8C
:1006E000012251031648FFF721FE4FF4FA70FFF77D
:1006F0002DFD00224FF400511148FFF717FE322064
:10070000FFF724FD012251030D48FFF70FFE4FF4C0
:10071000FA70FFF71BFD00224FF400510848FFF765
:1007200005FE4FF44870FFF711FD01225103044804
:10073000FFF7FCFD4FF4FA70FFF708FDC7E7000074
:1007400000100140640700080000002010000000B5
:100750009C0600087407000810000020001000002C
:10076000AC060008000000000000000000000000CF
:040770000000000085
:04000005080000ED02
:00000001FF
