:020000040800F2
:10000000201000200501000875060008F90200080C
:10001000A50400084D0100081109000800000000B7
:10002000000000000000000000000000AD07000814
:100030005101000800000000770600089908000838
:100040001F0100081F0100081F0100081F01000810
:100050001F0100081F0100081F0100081F01000800
:100060001F0100081F0100081F0100081F010008F0
:100070001F0100081F0100081F0100081F010008E0
:100080001F0100081F0100081F0100081F010008D0
:100090001F0100081F0100081F0100081F010008C0
:1000A0001F0100081F0100081F0100081F010008B0
:1000B0001F0100081F0100081F0100081F010008A0
:1000C0001F0100081F0100081F0100081F01000890
:1000D0001F0100081F0100081F0100081F01000880
:1000E0001F0100081F0100081F010008DFF810D0E1
:1000F00000F01AF80048004735090008AFF3008007
:10010000201000200648804706480047FEE7FEE72B
:10011000FEE7FEE7FEE7FEE7FEE7FEE7FEE7FEE7B7
:10012000B1080008ED000008064C074D06E0E06845
:1001300040F0010394E8070098471034AC42F6D32E
:10014000FFF7D8FF600900088009000800BFFEE73C
:1001500070472DE9F04102460025002600200023CB
:100160000024002791F803C00CF00F0591F803C09C
:100170000CF0100CBCF1000F03D091F802C04CEA57
:10018000050591F800C0BCF1000F31D014680020C3
:100190002BE04FF0010C0CFA00F3B1F800C00CEAB0
:1001A00003069E4220D183004FF00F0C0CFA03F798
:1001B000BC4305FA03FC4CEA040491F803C0BCF10B
:1001C000280F06D14FF0010C0CFA00FCC2F814C045
:1001D0000AE091F803C0BCF1480F05D14FF0010CC3
:1001E0000CFA00FCC2F810C0401C0828D1D31460DF
:1001F000B1F800C0BCF1FF0F34DD546800202EE0E0
:1002000000F1080C4FF0010808FA0CF3B1F800C037
:100210000CEA03069E4221D183004FF00F0C0CFA2A
:1002200003F7BC4305FA03FC4CEA040491F803C04D
:10023000BCF1280F05D100F1080C08FA0CF8C2F83F
:10024000148091F803C0BCF1480F07D100F1080CED
:100250004FF0010808FA0CF8C2F81080401C08287A
:10026000CED35460BDE8F081F0B50A4600230024E7
:100270000021002500F00046B6F1004F02D11D4ECE
:10028000F16901E01B4E7168C0F3034583B200F4CD
:100290004016B6F5401F08D121F07061154E766802
:1002A00026F07066134F7E6012E000F48016B6F5FB
:1002B000801F06D1032606FA05F4A14341F07061C0
:1002C00006E0460D360103FA06F6B14341F07061CF
:1002D00022B1460D360103FA06F6314300F000461E
:1002E000B6F1004F02D1034EF16101E0014E7160A1
:1002F000F0BD00000000014000BFFEE7002221F039
:100300007F42D3438382704721B1028842F00102C9
:10031000028004E002884FF6FE731A4002807047A4
:1003200021B1028842F48072028004E002884FF614
:10033000FF631A400280704721B1028842F40072C4
:10034000028004E002884FF6FF531A400280704793
:100350000CB50246002000230193009300920B0F7E
:10036000019321F07F41019B1BB1009B143300934B
:1003700003E0090C009B18330093009B1B680B40A3
:100380000BB1012000E000200CBD00002DE9F0437E
:1003900085B004460D460026B1460427DFF8CC8020
:1003A000A6884FF6C0700640684600F095F9DDF863
:1003B00008802F48B8FBF0F01FFA80F946EA0906DA
:1003C000A68020884FF6FE7108402080002629492B
:1003D000286888420CD828684000B8FBF0F087B243
:1003E000042F00DA04273E4309F10100208427E0AE
:1003F000E8884BF6FF71884206D1286800EB400080
:10040000B8FBF0F087B209E0286800EBC00101EB0F
:100410000010B8FBF0F087B247F48047C7F30B0039
:1004200008B947F0010747F4004006434FF49670BF
:1004300009FB00F04FF47A7190FBF1F0401C20842E
:10044000A683208840F00100208026884FF6F530F2
:100450000640A8886989084306432680A889298917
:100460000843208105B0BDE8F083000000127A0047
:1004700040420F00A086010008B50246002000900F
:1004800000920098084400900098008808BD12B1BE
:1004900041F0010102E04FF6FE73194001827047FE
:1004A0000182704700BFFEE700B585B00121084614
:1004B00000F002F901210220FFF7D6FE01210820F9
:1004C00000F0FAF84FF44070ADF810001C208DF8E1
:1004D000130002208DF8120004A91148FFF739FE1D
:1004E0000121480500F0C8F80121480500F0D4F8C2
:1004F00000214FF4001000F0CFF80A4800900020CF
:10050000ADF804004BF6FF70ADF8060069460648EA
:10051000FFF73CFF01210448FFF7F6FE05B000BDE0
:10052000000C0140801A0600005400402DE9F047FD
:1005300081468A461746984642F2107505E0681EC5
:10054000051E02D1401FBDE8F0874FF40031484638
:10055000FFF7FEFE0128F2D001214846FFF7E0FE3A
:1005600004E0681E051E01D1401EECE72F494846F5
:10057000FFF7EEFE0028F4D02D494846FFF7BEFEF7
:10058000002251464846FFF782FF19E02749491CDF
:100590004846FFF7DDFE012800D112E02449484615
:1005A000FFF7D6FE012806D101214846FFF7C4FE19
:1005B0006FF00100C7E7681E051E01D1001FC2E7EA
:1005C000E4E700BF14214846FFF756FF18214846CC
:1005D000FFF752FF002613E0012214497F314846FD
:1005E00000F028F804462CB101214846FFF7A4FE8C
:1005F0002046A8E7B95D4846FFF752FF701C86B257
:100600004645E9DB01220949C91C484600F012F8B9
:1006100004462CB101214846FFF78EFE204692E7A2
:1006200001214846FFF788FE00208CE701000010FA
:10063000000400102DE9F04105460E46144642F232
:10064000107708E00A492846FFF782FE012802D108
:10065000001FBDE8F08131462846FFF779FEA04231
:10066000F0D1781E071E01D1001FF2E70020F0E74D
:10067000000400107047704729B1064AD26902434E
:10068000044BDA6104E0034AD2698243014BDA6128
:10069000704700000010024029B1064A1269024367
:1006A000044B1A6104E0034A12698243014B1A6148
:1006B000704700000010024029B1064A92690243C7
:1006C000044B9A6104E0034A92698243014B9A61A8
:1006D000704700000010024030B5002100220024C5
:1006E00000232D4D6D6805F00C0121B1042905D0C2
:1006F000082923D105E0294D056022E0274D05603A
:100700001FE0254D6D6805F47012234D6D6805F4EA
:100710008034022505EB92421CB9214D55430560FA
:100720000BE01D4D6D6805F400351DB11C4D5543A2
:10073000056002E0194D5543056002E0174D056064
:1007400000BF00BF144D6D6805F0F0010909154D9B
:100750006B5C0568DD4045600F4D6D6805F4E06138
:10076000090A104D6B5C4568DD4085600A4D6D6877
:1007700005F46051C90A0B4D6B5C4568DD40C560EE
:10078000054D6D6805F44041890B074D6B5CC568EC
:10079000B5FBF3F5056130BD0010024000127A0090
:1007A00000093D000000002010000020704710B537
:1007B00000F002F810BD00000CB500200190009080
:1007C0003348006840F480303149086000BF304849
:1007D000006800F4003000900198401C01900098DF
:1007E00018B90198B0F5A06FF1D12948006800F45C
:1007F000003010B10120009001E00020009000982E
:10080000012843D12348006840F0100021490860C6
:100810000846006820F0070008600846006840F0BD
:10082000020008601A484068194948600846406854
:1008300048600846406840F4806048600846406868
:1008400020F47C1048600846406840F4E810486096
:100850000846006840F08070086000BF0C480068DF
:1008600000F000700028F9D00948406820F003002B
:10087000074948600846406840F00200486000BFF1
:100880000348406800F00C000828F9D10CBD0000B6
:1008900000100240002002400448036840685A1CCF
:1008A00040F1000001490A604860704714000020D0
:1008B00010B51348006840F001001149086008466F
:1008C0004068104908400E494860084600680E49D3
:1008D00008400B4908600846006820F48020086042
:1008E0000846406820F4FE0048604FF41F0088600E
:1008F000FFF75DFF4FF000600449086010BD000085
:10090000001002400000FFF8FFFFF6FE08ED00E0D7
:1009100000BFFEE702E008C8121F08C1002AFAD192
:1009200070477047002001E001C1121F002AFBD16F
:10093000704700001CB5FFF7B7FD06A103C9CDE95C
:10094000000105236A4678210448FFF7EFFD00BF48
:10095000FEE70000008D14AFA50000000054004029
:100960008009000800000020200000001409000891
:10097000A009000820000020001000002409000841
:100980000000000001020304010203040607080935
:100990000204060800000000000000000000000043
:04000005080000ED02
:00000001FF
